:020000040000FA
:10000000D80200109D020000A5020000A702000017
:1000100000000000000000000000000000000000E0
:10002000000000000000000000000000A902000025
:100030000000000000000000AB020000AD02000064
:10004000AF020000AF020000AF020000AF020000EC
:10005000AF020000AF020000AF020000AF020000DC
:10006000AF020000AF020000AF020000AF020000CC
:10007000AF020000AF020000AF020000AF020000BC
:10008000E10D0000F90D0000590D0000C70D000042
:10009000AF020000F9130000AF020000AF02000041
:1000A000F3010000F5140000AF020000AF020000F1
:1000B000DB060000AF020000AF0200007F07000077
:1000C00000F002F800F040F80CA030C808382418FE
:1000D0002D18A246671EAB4654465D46AC4201D180
:1000E00000F032F87E460F3E0FCCB6460126334272
:1000F00000D0FB1AA246AB46334318473C1600001B
:100100005C160000103A02D378C878C1FAD85207BA
:1001100001D330C830C101D504680C6070470000BD
:100120000023002400250026103A01D378C1FBD813
:10013000520700D330C100D50B6070471FB5C046D1
:10014000C0461FBD10B510BD01F0A9FA1146FFF75A
:10015000F5FF00F042FB00F0BEF803B4FFF7F2FF3A
:1001600003BC00F0C3F8000010B50121102000F01E
:100170009FFB3C48C06BC008C0003A49C8630846B2
:10018000C06B022108433749C8630846C06B802111
:1001900088433449C8630021102000F089FB10BD5A
:1001A00010B53148806B102188432F498863FFF7D1
:1001B000DBFF01210D2000F07BFB2C48C0680421EF
:1001C00008432A49C8600846C0688915084327497A
:1001D000C8600846C068891588432449C860C120A2
:1001E00080000860182001218140214A116000BF71
:1001F00010BD70B51D4800680121090688431B49E0
:100200000860084680690004840D20461949484367
:10021000642148431849401A18490860184917488A
:10022000006801F08FF905460022294615A001F06B
:1002300093F813491148006801F084F90E461549F6
:10024000304601F07FF905460122294612A001F04F
:1002500083F870BD05480068012109060843034979
:1002600008607047404004400082044000C00140E4
:1002700000E100E0990C000080F0FA02000000109C
:1002800040420F0074656D7065726174757265200F
:100290003D200000102700002E0000000748804786
:1002A00007480047FEE7FEE7FEE7FEE7FEE7FEE75A
:1002B00004480549034A054B704700008D0A0000B9
:1002C000C1000000D8000010D8020010D8000010B3
:1002D0007047704770470446C046C0462046FFF747
:1002E0003CFF0000004870477800001001491820CA
:1002F000ABBEFEE72600020070470000FFFFFFFFD5
:1003000070B504462546FE48844203D3FC48D430E9
:10031000844200D970BD0121102000F0C9FA206884
:10032000C008C0002060F6497831681A8D4213D0A9
:1003300008DCF448281800280BD05C280AD068286C
:1003400012D108E0042808D0082807D018280BD1BB
:1003500005E000BF00BF00BF00BF00BF00BF2068B6
:1003600001210843206000E000BF00BF00211020F1
:1003700000F09EFA00BFCDE7FFB5E34C2546E0CD87
:10038000E4680297019600950394002A11D0840036
:100390006D462C590125ED036419246801258D4013
:1003A0002C4385006E4675590126F603AD192C6065
:1003B00011E084006D462C590125ED036419246871
:1003C00001258D40AC4385006E4675590126F60324
:1003D000AD192C60FFBD002B11D084006D462C5947
:1003E0007F25ED016419E46F01258D402C438500C4
:1003F0006E4675597F26F601AD19EC6710E0840052
:100400006D462C597F25ED016419E46F01258D405F
:10041000AC4385006E4675597F26F601AD19EC6731
:1004200000BFD7E73FB50246B74D103539CD03952C
:100430006D4619C590006B4618587F23DB01C01824
:10044000C06FC840C007C00F04B030BD7FB50446C0
:100450000D461646AC4B20330FCB03936B4607C3B8
:10046000002E21D0A000694608580121C903401878
:1004700040680121A9400843A1006A465158012261
:10048000D20389184860A0006946085811464018F0
:10049000C0680121A9400843A1006A4651580122C1
:1004A000D2038918C86020E0A000694608580121DD
:1004B000C903401840680121A9408843A1006A4649
:1004C00051580122D20389184860A0006946085893
:1004D00011464018C0680121A9400843A1006A469E
:1004E00051580122D2038918C860A00069460858F3
:1004F0000121C903401800690121A9400843A10056
:100500006A4651580122D203891808611C2000F064
:1005100052F91F2000F04FF97FBD3FB57A4D3035BD
:100520003CCD03956D461CC582006B469A5801234D
:10053000DB03D218126901238B409A4383006C4677
:10054000E3580124E4031B191A6182006B469A5890
:100550002346D218D26901238B401A4383006C468C
:10056000E3580124E4031B19DA613FBD10B5644868
:100570003830FFF7C5FE0023012209211046FFF79E
:10058000FBFE10BD00B501231A4609211846FFF7EE
:10059000F3FE00BD10B55A484C30FFF7B1FE584885
:1005A0005030FFF7ADFE56486430FFF7A9FE5448BF
:1005B0006830FFF7A5FE0023012206211846FFF749
:1005C000DBFE0023012209211846FFF7D5FE012397
:1005D0001A4607210020FFF7CFFE01231A460A2101
:1005E0000020FFF7C9FE46481430FFF789FE0023BC
:1005F000012208211046FFF7BFFE10BD10B500F024
:100600000DFF0446042C01D1012406E0042C01DA7C
:10061000002402E0FF2C00D110BD3C480078844249
:1006200029D03A4804702346012206210020FFF712
:10063000A3FE2346012209210020FFF79DFE002C86
:1006400001D1012000E00020034601220721002003
:10065000FFF792FE002C01D1012000E000200346AC
:1006600001220A210020FFF787FE234601220821EC
:100670001046FFF781FE00BFCEE710B520483C30A2
:10068000FFF73EFE0123002204210320FFF774FE42
:10069000002204210320FFF7D9FE10BD10B501226E
:1006A00000211BA000F058FE00F0B8FEFF2813D177
:1006B0001A4800F072FA052000F0CCFB012200215C
:1006C00017A000F049FEFFF75DFF00F0D1FE002209
:1006D00004210320FFF7BAFE10BD10B5042103204A
:1006E000FFF71BFF322000F0D1FB09210120FFF7AB
:1006F00099FE002820D0FFF739FF0022042117E0DF
:1007000000400440F4BFFBBFF816000008000010D2
:10071000706F7765726F6666000000009D060000CE
:10072000706F7765726F666620646F6E652021005A
:100730000320FFF78BFE05E0FF22F532012121485F
:1007400000F0F2F910BD10B51F48FFF7D9FD0023E6
:10075000012203211846FFF70FFE10BD10B51A48FD
:100760001038FFF7CDFD0123002202211046FFF7CC
:1007700003FE002202211046FFF768FE10BD10B5EF
:1007800002210020FFF7C9FE10480068401C0F49F5
:100790000860002202211046FFF758FE10BD10B578
:1007A000FFF7D1FF0A4800F043FA28220021084849
:1007B00000F083FA10BDC206D20E01219140054A15
:1007C000116070479D0600002C400440040000109A
:1007D0000040014000E100E0704700F07FF8E120B8
:1007E000400200F0CFFBFFF7C1FEFFF746FF2448B1
:1007F00000F01EFA234800F01BFA234A0121214889
:1008000000F05BFA214800F013FA012211461F485C
:1008100000F053FAFFF7C4FCFFF7BCFEFFF7BFFF81
:10082000FFF79CFF00F034FE0122002118A000F029
:1008300093FDFF22F53201211A4800F075F97D225F
:10084000D2000121184800F06FF917E0002411E0F0
:100850000C2060431549085C00280AD00C21614334
:10086000124A89188868804700210C2060430F4A8B
:100870001154641C062CEBD300F004FEE6E70000E4
:100880000080014000C000403075000000000140C1
:1008900073797374656D20696E697420646F6E6519
:1008A00021000000FD05000055020000240000109A
:1008B000002800D17047002907D0174A1268012389
:1008C00083401A43144B1A6006E0134A126801234E
:1008D00083409A43104B1A6000BFEBE700B501213B
:1008E0000846FFF7E5FF01210220FFF7E1FF0121A4
:1008F0000320FFF7DDFF01210420FFF7D9FF0121CD
:100900000620FFF7D5FF01210C20FFF7D1FF0121C1
:100910000F20FFF7CDFF00BD8080044010B50024FC
:100920006F48406AC005000F030000F0D7FE1009B1
:100930000B0D0F11131517191B1D1F212325272917
:1009400000241DE0674C1BE0674C19E0674C17E082
:10095000674C15E0674C13E0674C11E0674C0FE003
:10096000674C0DE0674C0BE0674C09E0674C07E013
:10097000674C05E0674C03E0674C01E0674C00BF43
:1009800000BF5748406AC006800E811C204600F018
:10099000D9FD044652484030006B8007800F002884
:1009A00006D0012808D0022823D0032863D123E0F1
:1009B0005B485C4908605EE0494840300068800759
:1009C000800F002806D0012808D002280AD003286A
:1009D0000DD108E052485349086008E05048514999
:1009E000086004E000BF00204E49086000BF00BF5F
:1009F00041E04C4804603EE03948403000688007E0
:100A0000800F002806D0012819D002282CD00328F6
:100A10002FD12AE032488068FF2181310840002828
:100A200003D03F483F49086008E02D488068C00671
:100A3000C00E401C3A4948433A49086019E028482A
:100A40008068FF2181310840002803D034483549AF
:100A5000086008E022488068C006C00E401C30498B
:100A600048433049086004E000BF00202D49086079
:100A700000BF00BF00BF00BF19484030816B29484C
:100A8000006800F05FFD2749086010BD022014498E
:100A90004031086001204860002048600120486023
:100AA00000BF0F4840304068C007C00F0028F8D092
:100AB00000200B494031086301204863002048634F
:100AC0000120486300BF06484030406BC007C00F9C
:100AD0000028F8D0012002494031886370470000A7
:100AE0000080044020A1070000350C00E0C8100081
:100AF000C05C1500006A180040771B0080841E004F
:100B0000C0912100009F240040AC2700E032290062
:100B100020402C00604D2F0000D4300040E1330015
:100B2000001BB7000C000010F8B506460F4615462E
:100B3000002D01DD002E07D10122002129A000F0A7
:100B40000BFC0020C043F8BD002418E00C206043DB
:100B50002B494018806800280FD10C2060434018B2
:100B600086600C206043401885800C20604340184C
:100B700045800C2060430F5403E0601CC4B2062C77
:100B8000E4DB00BF062C06D1012200211DA000F0ED
:100B9000E3FBE01FD7E70020D5E770B5054600244A
:100BA00012E00C206043164940188068A84209D121
:100BB00000210C206043124A801881600C206043A1
:100BC000115403E0601CC4B2062CEADB00BF062C03
:100BD00006D10122002110A000F0BEFBE01F70BD75
:100BE0000020FCE77461736B2063616E6E6F74208C
:100BF00062652072656769737465726564000000E0
:100C0000240000107461736B20717565756520692F
:100C1000732066756C6C00006E6F207468697320B9
:100C20007461736B20696E207175657565000000D5
:100C300010B50446B3482018002816D001218903B6
:100C4000401A19D0401A02D0401A1CD106E00121E6
:100C50000920FFF72DFE0B20E0601AE001210A2099
:100C6000FFF726FE0B20E06013E001210720FFF7CD
:100C70001FFEA548E0600CE001210820FFF718FEE8
:100C8000A148E06005E001220021A0A000F064FB83
:100C900010BD00BF20681F21084320606069032148
:100CA0004902084360616068800880006060606895
:100CB00002210843606000BFEAE770B504460D46B4
:100CC0001646012D05DD0122002197A000F044FB0E
:100CD00070BD606880088000606060680221084321
:100CE0006060002D04D0606989028843606104E07F
:100CF00060690121C9020843606182482018002808
:100D000010D001218903401A10D0401A02D0401A95
:100D100010D103E0122000F0EEF811E0132000F0F3
:100D2000EAF80DE0102000F0E6F809E0112000F0EC
:100D3000E2F805E00122002174A000F00DFB00BFE5
:100D400000BF6662606880088000606060680121A2
:100D50000843606000BFBBE710B503210020FFF728
:100D600061FB044674480068082108437249086022
:100D7000002C01D1012000E00020034601220321C4
:100D80000020FFF7F9FA002C0AD06C480078401ECA
:100D900080006B490A5800216748FFF78EFF0BE07F
:100DA00066480078401E80006549085832210A1ABA
:100DB00000216148FFF781FF5F4800680821084370
:100DC0005D49086010BD10B55E4800680821084301
:100DD0005C490860012200215BA000F0BDFA10BD53
:100DE0004848404200680821084346494942086093
:100DF0000020574908607047564909680822114386
:100E0000544A1160002022E00C214143524A8918C3
:100E10008968002919D00C21414389184988491E45
:100E20008AB20C2141434C4BC9184A80002A0CD18C
:100E30000C2141431A4689188A880C214143C9185C
:100E40004A8001220C2141435A54411CC8B2062851
:100E5000DADB704710B504467D20C000844205D916
:100E6000012200213DA000F077FA10BD4248604306
:100E7000024600213348FFF720FF00BF3148406899
:100E8000C007C00F0028F9D100BFEEE710B5044637
:100E90003A48844205D90122002130A000F05CFAD2
:100EA00010BD7D20C0006043024600212548FFF7A9
:100EB00004FF00BF23484068C007C00F0028F9D1D5
:100EC00000BFEDE710B504462B48844205D9012246
:100ED000002122A000F040FA10BD2246002119484E
:100EE000FFF7EBFE00BF17484068C007C00F00289F
:100EF000F9D100BFF0E7C206D20E01219140204A8D
:100F0000116070470040FFBFDF2E000074696D65FF
:100F10007220726567206164647220697320696E53
:100F200076616C69640000006C6F6F7020696E768A
:100F3000616C696400000000004001401000001076
:100F4000140000100080014033325F3100000000C7
:100F500004000010000001402400001064656C6172
:100F600079206475726174696F6E20697320696E8F
:100F70007661696C6400000040420F00A0860100A9
:100F800000E100E010B5044601211020FFF790FCBD
:100F9000FE48406AC008C000FC4948620846406AF2
:100FA00001210843F94948620846806AC008C00028
:100FB00088620846806A01210843F449886200215A
:100FC0001020FFF775FCF2488069000A0002F04922
:100FD00088610846806901210843ED498861ED4830
:100FE000C06880210843EB49C8604B214902601A60
:100FF0008C427DD00CDCE848201A1AD00911401A26
:101000003AD04900401A5AD04900401A33D17EE004
:10101000E249401800286CD019218901401A69D092
:10102000E1210902401A66D019214902401AEDD186
:101030001CE1D8484068000A0002D64948600846CA
:101040000068000A0002086008460068D0210843D2
:10105000D04908600846806A000A00028862084693
:10106000806A01210843CB4988620846806A2021B2
:101070000843C84988621CE1C6484068000A00026B
:10108000C449486008460068000A00020860084633
:10109000006868210843BF4908600846806A000A62
:1010A000000288620846806A01210843B9498862C3
:1010B0000846806A20210843B6498862F9E0B548AD
:1010C0004068000A0002B349486008460068000A08
:1010D000000208600846006834210843AD490860F2
:1010E0000846806A000A000288620846806A03E0B7
:1010F00030E052E074E096E001210843A54988629F
:101100000846806A20210843A2498862D1E0A148AC
:101110004068000A00029F49486008460068000ACB
:1011200000020860084600681A21084399490860CF
:101130000846806A000A000288620846806A012127
:101140000843944988620846806A202108439149EF
:101150008862AEE08F484068000A00028D4948600E
:1011600008460068000A00020860084600680D2171
:101170000843884908600846806A000A00028862BD
:101180000846806A01210843824988620846806ACD
:10119000202108437F4988628BE07E484068000A2E
:1011A00000027C49486008460068000A00020860A6
:1011B0000846006808210843764908600846806AA6
:1011C000000A000288620846806A022108437149C9
:1011D00088620846806A302108436E49886268E068
:1011E0006C484068000A00026A4948600846006886
:1011F000000A0002086008460068082108436549A3
:1012000008600846806A000A000288620846806A10
:10121000052108435F4988620846806A80210843A7
:101220005C49886245E05B484068000A0002594911
:10123000486008460068000A000208600846006826
:1012400004210843534908600846806A000A0002E6
:1012500088620846806A052108434E49886208462C
:10126000806A802108434B49886222E049484068EF
:10127000000A00024749486008460068000A000268
:10128000086008460068042108434249086008468F
:10129000806A000A000288620846806A06210843C4
:1012A0003C4988620846806AD021084339498862EF
:1012B00000BF00BF3748C068802188433549C860F7
:1012C00008468068072108433249886008468068DC
:1012D000C02188432F4988600846C0680009000182
:1012E000C8600846C068032108432A49C860084608
:1012F000406900BF27484069602108406028F9D153
:1013000001E02448006823484069C007C00F002856
:10131000F7D105201F494860152001218140204A4E
:10132000116000BF10BD70B50446002510E00A2111
:10133000204600F007F928466A1CD5B2194A115414
:101340000A21204600F0FEF80446002C00D100E0FF
:10135000EDE700BF284670BDF8B506460C461746B7
:101360000025002E00D1F8BD03E0681E305C09495D
:1013700008602846691CCDB2305C0028F5D1002CED
:1013800003DA64425D20034908600DE080400440B8
:1013900080800440008000406009000040BBFFFFE7
:1013A00000E100E06C000010002C00D10FE02046AE
:1013B000FFF7B9FF054607E0681E2F49085C30308B
:1013C0002E490860681EC5B2002DF5DC00BF002F55
:1013D00004D00D20294908600A20086000BF274872
:1013E0004069402108400028F9D02448406908405D
:1013F0000028F4D000BFB6E7204880680007400FFF
:1014000002280AD103E01D4800681D4908701B48E6
:101410004069C007C00F0028F5D170471849097806
:10142000322901DA012022E015490978322905DB49
:1014300013490978502901DA022018E01049097887
:10144000502905DB0E490978642901DA03200EE0F2
:101450000B490978642905DB09490978FE2901DA75
:10146000042004E006490978FF2900D1FF207047D5
:1014700000200349087070476C0000100080004095
:1014800020000010AA2026498860552088607047F7
:1014900000B52448806B402188432249886302209C
:1014A000214908610120486100204861012048610C
:1014B00000BF1D484069C007C00F0028F9D00320B5
:1014C0001949886119481649486008460068022190
:1014D0000843134908600846006801210843104981
:1014E0000860FFF7CFFF192001218140104A1160E9
:1014F00000BF00BD0A48006804218843084908600D
:10150000012200210BA0FFF727FF00BFBFF34F8F81
:101510000A480B49C860BFF34F8F00BF00BFFEE70A
:101520000040004000820440C0800440C409000024
:1015300000E100E072657374617274000400FA05E2
:1015400000ED00E0002203098B422CD3030A8B42FA
:1015500011D300239C464EE003460B433CD40022AB
:1015600043088B4231D303098B421CD3030A8B42BD
:1015700001D394463FE0C3098B4201D3CB01C01A8B
:10158000524183098B4201D38B01C01A5241430956
:101590008B4201D34B01C01A524103098B4201D344
:1015A0000B01C01A5241C3088B4201D3CB00C01AB1
:1015B000524183088B4201D38B00C01A5241430829
:1015C0008B4201D34B00C01A5241411A00D201464E
:1015D0005241104670475DE0CA0F00D049420310E7
:1015E00000D34042534000229C4603098B422DD336
:1015F000030A8B4212D3FC22890112BA030A8B42DE
:101600000CD3890192118B4208D3890192118B422C
:1016100004D389013AD0921100E08909C3098B42B1
:1016200001D3CB01C01A524183098B4201D38B01F4
:10163000C01A524143098B4201D34B01C01A524197
:1016400003098B4201D30B01C01A5241C3088B42DC
:1016500001D3CB00C01A524183088B4201D38B00C7
:10166000C01A5241D9D243088B4201D34B00C01A51
:101670005241411A00D20146634652415B10104666
:1016800001D34042002B00D54942704763465B10AE
:1016900000D3404201B50020C046C04602BD754699
:1016A000FEF720FEAE46050069465346C008C0005E
:1016B000854618B020B5FEF7FBFD60BC0027490841
:1016C000B6460026C0C5C0C5C0C5C0C5C0C5C0C5DA
:1016D000C0C5C0C5403D49008D46704730B4744612
:1016E000641E2578641CAB4204D3635D5B00E31881
:1016F00030BC18471D46F8E70000005000000150BC
:101700000000025000000350000000500000015093
:101710000000025000000350000000500000015083
:101720000000025000000350000000500000015073
:101730000000025000000350581700000000001085
:1017400024000000040100007C17000024000010A9
:10175000B4020000200100000000000000000000B2
:1017600000000000001BB700010000003200000074
:0C1770001E0000000A0000000000000045
:04000005000000C136
:00000001FF
